:100000000C9439010C946A010C946A010C946A01F5
:100010000C946A010C946A010C946A010C946A01B4
:100020000C946A010C946A010C946A010C946A01A4
:100030000C946A010C94A7090C946A010C946A014F
:100040000C946A010C94DB0A0C946A010C946A010A
:100050000C946A010C946A010C946A010C94070ACE
:100060000C946A010C946A010C946A010C946A0164
:100070000C946A010C946A010C946A010C946A0154
:100080000C94AD0A0C946A010C946A010C946A01F8
:100090000C946A010C946A010C946A010C946A0134
:1000A0000C946A010C946A010C947F0A0C946A0106
:1000B0000C946A010C946A010C946A010C94510A24
:1000C0000C946A010C946A010C946A010C946A0104
:1000D0000C946A010C946A010C946A010C946A01F4
:1000E0000C946A010C9420070C94DC020C94D4024A
:1000F0000C94F4020C94F0020C94EE0E0C94EA02B0
:100100000C94B9020C94C4020C9464020C94CE02B8
:100110000C94E2020C94C1020C94CA020C94B50235
:100120000C94A1090C941F070C9421030C94E60273
:100130000C9452030C940A060C94AF020C94D8024F
:100140000C94BD020C94290E0C94EF0200002100C7
:10015000240027002A002D00300033000101000098
:10016000040107010A0100002000230026002900E5
:100170002C002F00320000010000030106010901DC
:1001800000000A0B02090C0D0E0807030401000011
:10019000000000000000000000000000000000005F
:1001A000000000000000000000000000121110001C
:1001B000000000000000000000000000000000003F
:1001C000000000000000010210202008081020405C
:1001D000102040800201020108040201010204080B
:1001E0001020408080402010080402018004020199
:1001F00080402010080402010804020101020408E2
:1002000010204080010204081020408000002200DD
:10021000250028002B002E003100340002010000D0
:10022000050108010B010505050507050808080873
:10023000020202020A0A080804040404010101017E
:100240000101010103030303030303030407070779
:100250000C0C0C0C0C0C0C0C02020202060606061E
:10026000060606060B0B0B0B0B0B0B0B0200290EE5
:10027000EE0E11241FBECFEFD1E2DEBFCDBF00E0F6
:100280000CBF12E0A0E0B2E0E4EAF3E200E00BBF52
:1002900002C007900D92AA3DB107D9F724E0AAED5C
:1002A000B2E001C01D92A033B207E1F711E0C8E34C
:1002B000D1E000E006C021970109802FFE010E94D5
:1002C000A20FC733D10780E00807A9F70E94090BE6
:1002D0000C94C0110C9400008F929F92AF92BF9229
:1002E000FF920F931F93CF93DF93F0900B042FE2B5
:1002F0002F1508F44CC020910D0408E512E0021BF4
:10030000110927FD1395000F111F000F111F2091D8
:100310000C04C8E8D0E0C21BD10927FDD395CC0F4F
:10032000DD1FCC0FDD1F4E010D2E000CAA08BB08EF
:100330009801012E000C440B550B281939094A0964
:100340005B09DC010E945D0F24EB30E040E050E0EF
:100350000E94330F820E931EA41EB51E8C169D069E
:100360002CF0E801801691060CF4E4012297CC0FE2
:10037000DD1F2FB7F8948F2D90E0FC01EE0FFF1FCB
:10038000E80FF91FE558FC4FD283C1832FBFDF91DF
:10039000CF911F910F91FF90BF90AF909F908F9042
:1003A000089596E0899FD0011124A451BD4F9096E5
:1003B0007C936E935F9791E091969C939197E091D7
:1003C0005903F0915A0390915803992339F03097CB
:1003D00051F0811108C0809108031994309719F0E9
:1003E0005C968C91FACF0895CF92DF92EF92FF92B4
:1003F0000F931F9396E0899FF0011124E451FD4F64
:1004000011A2278D30A12130310551F178F0223031
:10041000310509F451C02330310509F452C01F9150
:100420000F91FF90EF90DF90CF9008956623B9F37E
:1004300061E070E00E94D1012FB7F8948091E8024A
:100440009091E902A091EA02B091EB022FBF809354
:10045000440390934503A0934603B0934703DFCF33
:100460009FB7F894C090E802D090E902E090EA02C9
:10047000F090EB029FBF009144031091450320913F
:10048000460330914703C01AD10AE20AF30A0091E9
:1004900056031091570330E020E00C151D052E0582
:1004A0003F0550F462E070E01F910F91FF90EF90D4
:1004B000DF90CF900C94D1016111B1CF63E070E077
:1004C000F3CF70E060E0F0CFAF92BF92CF92DF92B7
:1004D000EF92FF920F931F93CF93DF936C017B01F9
:1004E0008B01040F151FEB015E01AE18BF08C0178A
:1004F000D10759F06991D601ED91FC910190F081FD
:10050000E02DC6011995892B79F7C501DF91CF91AF
:100510001F910F91FF90EF90DF90CF90BF90AF9021
:1005200008958150823108F05AC0E82FF0E0882702
:10053000E356FD4F8F4F0C94A20FBD02C102AF02D4
:10054000B502B902EF02C402CA02CE02D402D80236
:10055000DC02E202E602EF02EA02F002F40280911B
:1005600080008F77809380000895809180008F7D38
:10057000F9CF80918000877FF5CF84B58F7784BDD8
:10058000089584B58F7DFBCF8091B0008F778093E5
:10059000B00008958091B0008F7DF9CF80919000D8
:1005A0008F77809390000895809190008F7DF9CF90
:1005B00080919000877FF5CF8091A0008F77809306
:1005C000A00008958091A0008F7DF9CF8091A000B8
:1005D000877FF5CF809120018F7780932001089548
:1005E000809120018F7DF9CF80912001877FF5CF09
:1005F000CF93DF93282F30E0F901E058FE4F84912C
:10060000F901EA53FE4FD491F901EA5DFD4FC4911F
:10061000CC23A1F081110E949102EC2FF0E0EE0FAB
:10062000FF1FEA59FE4FA591B491EC91ED2381E0B3
:1006300090E009F480E0DF91CF91089580E090E0B0
:10064000FACF862F0C94F8021F93CF93DF93282FB5
:1006500030E0F901E058FE4F8491F901EA53FE4F72
:10066000D491F901EA5DFD4FC491CC23A9F0162F76
:1006700081110E949102EC2FF0E0EE0FFF1FE45F6A
:10068000FD4FA591B4918FB7F894EC91111108C06A
:10069000D095DE23DC938FBFDF91CF911F9108951A
:1006A000DE2BF8CF862F642F0C94240390911C022C
:1006B00089130DC0ECE6F2E0E4919FEF90931C02E9
:1006C000E230E1F038F4EE2381F0E13089F060E0CF
:1006D0000C942403E43049F110F1E530C1F7909116
:1006E00073009D7F90937300F2CF10926E00EFCF56
:1006F00090916F009D7F90936F00E9CF9091700073
:100700009D7F9093700091E09093B0009091B10024
:10071000987F94609093B1001092B300D8CF9091DD
:1007200071009D7F90937100D2CF909172009D7F58
:1007300090937200CCCFCF93DF9390E0FC01EA530B
:10074000FE4F24918A5D9D4FFC0184918823C9F05E
:1007500090E0880F991FFC01E45BFE4FA591B491D6
:10076000FC01E45FFD4FC591D49161110DC09FB7AD
:10077000F8948C91209582238C9388812823288358
:100780009FBFDF91CF910895623051F49FB7F894E5
:100790003C91822F809583238C93E8812E2BEFCF81
:1007A0008FB7F894EC912E2B2C938FBFEACF8091CA
:1007B0000B04803308F051C061E089E00E949B0384
:1007C00080910B04282F30E0F901EE0FFF1FE20F9C
:1007D000F31FE558FC4F9081907C996090831092B4
:1007E0000C0410920D042CE0622F0E94960F829F41
:1007F000B001112430E020E0AB01420F531FFA0199
:10080000EE0FFF1FE40FF51FE558FC4F908196FD9A
:1008100016C02F5F3F4F2C30310571F7813001F545
:100820001092800082E080938100109285001092E7
:100830008400B19A80916F00826080936F00E09194
:100840000B048E2F90E0FC01EE0FFF1FE80FF91F45
:10085000E558FC4F80818064808380910B0408956B
:10086000823061F410929000809391001092950074
:100870001092940088BB80937100E1CF833069F4BB
:100880001092A00082E08093A1001092A500109227
:10089000A40089BB80937200D2CF8111D0CF109277
:1008A000200182E080932101109225011092240101
:1008B0008ABB80937300C3CFCF9380911C02883191
:1008C00021F08F3F59F1CF910895ECE6F2E0C49109
:1008D000C7FDF9CF61E088E10E949B03CC2309F4B6
:1008E000F0C0C23009F004C18091B100887F8360FC
:1008F0008093B10089EF8093B3008FEF9FEFDC010D
:1009000080936F0390937003A0937103B09372036D
:1009100080917000826080937000D5CF88E18093D1
:100920001C02ECE6F2E0C4918C2FCF3F61F2C230A2
:1009300009F468C060F4CC2379F1C13009F444C0F3
:1009400087FDC1CF61E088E10E949B03CACFC4301C
:1009500009F499C008F478C0C53091F710922001CD
:100960001092210180912101886080932101809162
:100970002101816080932101EEE3F2E0E491F0E057
:10098000EE0FFF1FE45FFD4F85919491EEEDF1E0D6
:10099000E491E0935B039ECF14BC15BC84B58260E8
:1009A00084BD85B5816085BDEEE3F2E0E491F0E0C1
:1009B000EE0FFF1FE45FFD4F85919491EEEDF1E0A6
:1009C000E491E093620386CF109280001092810040
:1009D0008091810088608093810080918100816096
:1009E00080938100EEE3F2E0E491F0E0EE0FFF1F70
:1009F000E45FFD4F85919491EEEDF1E0E491E09399
:100A0000610368CF1092B0001092B1008091B000E5
:100A100082608093B0008091B10081608093B100CA
:100A2000EEE3F2E0E491F0E0EE0FFF1FE45FFD4F34
:100A3000859194919093600380935F03EEEDF1E0D4
:100A4000E491E0935E0346CF1092900010929100E3
:100A500080919100886080939100809191008160E5
:100A600080939100EEE3F2E0E491F0E0EE0FFF1FDF
:100A7000E45FFD4F85919491EEEDF1E0E491E09318
:100A80005D03C3E027CF1092A0001092A1008091D7
:100A9000A10088608093A1008091A1008160809373
:100AA000A100EEE3F2E0E491F0E0EE0FFF1FE45F5F
:100AB000FD4F85919491EEEDF1E0E491E0935C03BC
:100AC00009CF85B5887F836085BD8CE787BD8FEFB3
:100AD0009FEFDC018093770390937803A0937903D1
:100AE000B0937A0380916E00826080936E00EBCEAB
:100AF000C130E9F480918100887F8160809381001A
:100B00008FE39FE190938900809388008FEF9FEFA0
:100B1000DC018093730390937403A0937503B093E7
:100B2000760380916F00826080936F00CCCEC330DB
:100B3000E9F480919100887F8160809391008FE338
:100B40009FE190939900809398008FEF9FEFDC01D5
:100B500080936B0390936C03A0936D03B0936E032B
:100B600080917100826080937100ADCEC430E9F451
:100B70008091A100887F81608093A1008FE39FE135
:100B80009093A9008093A8008FEF9FEFDC018093E2
:100B9000670390936803A0936903B0936A038091FD
:100BA00072008260809372008ECEC530E9F480912D
:100BB0002101887F8160809321018FE39FE19093E1
:100BC0002901809328018FEF9FEFDC01809363035D
:100BD00090936403A0936503B093660380917300C0
:100BE0008260809373006FCEC23091F034F4CC23D6
:100BF00069F0C13009F067CE83CFC43009F4BECFAD
:100C00000CF49DCFC53009F05ECED7CF8FE35ECF19
:100C10008FE371CE862F642F0C949B033FB7F8941B
:100C20008091E0029091E102A091E202B091E30292
:100C300026B5A89B05C02F3F19F00196A11DB11D37
:100C40003FBFBA2FA92F982F8827BC01CD01620F73
:100C5000711D811D911D42E0660F771F881F991F2E
:100C60004A95D1F708958F929F92AF92BF92CF92FB
:100C7000DF92EF92FF924B015C010E940E066B0126
:100C80007C010E940E066C197D098E099F09683E41
:100C9000734081059105A8F321E0821A9108A1080B
:100CA000B10888EEC80E83E0D81EE11CF11C811447
:100CB0009104A104B10429F7FF90EF90DF90CF9049
:100CC000BF90AF909F908F900895AF92BF92CF92B8
:100CD000DF92EF92FF920F931F93CF93DF936B01FD
:100CE0007A01EC01C552DD4F28813CE0389F80013C
:100CF000399F100D1124A090DA02B12C27FF1FC0DC
:100D0000FB011182108288818F5F8883888198011E
:100D1000280F311D87FD3A95F6012A153B051CF475
:100D200088818C30C4F180819181049680349C4903
:100D300008F473C0F60180819181049670C08881A7
:100D40009801280F311D87FD3A952A153B05DCF6E1
:100D50008881A801480F511D87FD5A95FA01EE0FB1
:100D6000FF1FE40FF51FE558FC4F808186FFCBCFB6
:100D70008881F801E80FF11D87FDFA95CF01EE0F8C
:100D8000FF1FE80FF91FE558FC4F808160E08F736B
:100D90000E942403B8CF808191812881A801420F4D
:100DA000511D27FD5A959A01FA01EE0FFF1FE20F20
:100DB000F31FE558FC4F21813281820F931FF70109
:100DC0009183808388819801280F311D87FD3A9592
:100DD000F901EE0FFF1FE20FF31FE558FC4F808172
:100DE00086FF22C08881080F111D87FD1A95F80122
:100DF000EE0FFF1FE00FF11FE558FC4F808161E00F
:100E00008F73DF91CF911F910F91FF90EF90DF9043
:100E1000CF90BF90AF900C94240380E49CE9F7013D
:100E2000918380838FEF8883DF91CF911F910F9102
:100E3000FF90EF90DF90CF90BF90AF90089508950E
:100E400090E080E00895CF93DF93EC018091260439
:100E500090912704009759F020912804309129049B
:100E60002C173D0720F081E0DF91CF910895BE015E
:100E70006F5F7F4F0E94CF10009789F090932704F7
:100E800080932604D0932904C093280420912A0437
:100E900030912B04232B39F7FC011082E4CF80E042
:100EA000E3CF8F929F92AF92BF920F931F93CF93F6
:100EB000DF93CDB7DEB7A1970FB6F894DEBF0FBEB4
:100EC000CDBF19A2423008F44AE08E010F5D1F4FDA
:100ED000842E912CB12CA12CA50194010E94650FA8
:100EE000E62FB901CA01EA3044F5E05DD801EE937E
:100EF0008D01232B242B252B79F790E080E0109790
:100F000069F0FD0101900020E9F73197AF014A1B1C
:100F10005B0BBD018EE094E00E946402A1960FB6C7
:100F2000F894DEBF0FBECDBFDF91CF911F910F911F
:100F3000BF90AF909F908F900895E95CD7CFFC0150
:100F400001900020E9F73197AF01481B590BBC0114
:100F50008EE094E00C946402809126049091270422
:100F6000009711F00C94F70E60E070E0CB0108954B
:100F7000CF93DF93EC0160E08E810E94240361E057
:100F80008E810E94240360E08E810E9424038BE8FE
:100F900091E00197F1F7DF91CF910895CF92DF9221
:100FA000EF92FF920F931F93CF93DF936C017C011D
:100FB00087E0E80EF11CD0E0C0E0062F10E0B80199
:100FC0000C2E02C0759567950A94E2F76170F701DF
:100FD00081917F010E9424032196C430D10579F7C5
:100FE000C601DF91CF911F910F91FF90EF90DF909D
:100FF000CF900C94B807CF92DF92EF92FF920F93AD
:101000001F93CF93DF93EC01F62E642F8C810E9407
:1010100024038D818F3F19F060E00E9424030F2D7F
:1010200010E08F8584FF25C06E0187E0C80ED11CBB
:10103000F12CE12CB8010E2C02C0759567950A942D
:10104000E2F76170F60181916F010E942403FFEFC6
:10105000EF1AFF0A88E0E816F10461F7CE01DF918C
:10106000CF911F910F91FF90EF90DF90CF900C9454
:10107000B807B80184E0759567958A95E1F7CE01C8
:101080000E94CE076F2DCE01DF91CF911F910F915E
:10109000FF90EF90DF90CF900C94CE0740E0682F48
:1010A0008EE094E00C94FB0781E00E944E088BE3F5
:1010B0009FE10197F1F70895CF93DF93823029F4F0
:1010C00090911D04986090931D04809321041092C8
:1010D000220480E48093230480E18093240480E54B
:1010E0008093250461E0809112040E949B0380910B
:1010F00013048F3F19F061E00E949B0361E080912F
:1011000014040E949B03CEE0D4E09E012E50344094
:1011100080911D0484FD0BC084E090E02196281787
:10112000390744F461E08E810E949B03EECF88E092
:1011300090E0F4CF8BE39DE00197F1F760E08091C0
:1011400012040E94240360E0809114040E9424038E
:10115000809113048F3F19F060E00E942403809176
:101160001D0484FD34C063E08EE094E00E94CE074D
:10117000CBE4D6E4CE010197F1F763E08EE094E092
:101180000E94CE072197F1F763E08EE094E00E9481
:10119000CE0783E592E00197F1F762E08EE094E0FC
:1011A0000E94CE0780911D0480620E944E0884E058
:1011B00080931E048CE00E944E080E94540882E036
:1011C00080931F0486E0DF91CF910C944E088062DB
:1011D0000E944E088BE496E40197F1F780911D047C
:1011E00080620E944E0883E592E00197F1F78091BA
:1011F0001D0480620E944E08D5CF9091210469178A
:1012000010F06FEF690FE62FF0E0E25FFB4F94897B
:10121000890F80680C944E088130910509F04BC00D
:101220009093E7028093E60260E08CE00E94240342
:1012300061E08DE00E94240360ED77E080E090E0C3
:101240000E94330660E08DE00E9424030E945C044B
:1012500068EE73E080E090E00E94330688E10E942F
:1012600056030E94D70390E080E00E946C0168EE74
:1012700073E080E090E00E943306E0910B048E2F33
:1012800090E0FC01EE0FFF1FE80FF91FE558FC4F3F
:1012900080818F7B808368EE73E080E090E00E9425
:1012A00033060E94540860E081E00E94FD0889E353
:1012B00092E00C949F071092E7021092E60261E020
:1012C0008CE00E94240360ED77E080E090E00E94D3
:1012D000330660E08CE00E94240368EE73E080E057
:1012E00090E00E9433060E945C0468EE73E080E0A8
:1012F00090E00E94330688E10E9456030E94D703C3
:101300008AE590E00E946C0168EE73E080E090E076
:101310000E943306E0910B048E2F90E0FC01EE0F4B
:10132000FF1FE80FF91FE558FC4F80818F7B8083FA
:101330000E94540860E081E00E94FD0886E492E08B
:10134000B8CF41E00E94FB0781E090E008951F9232
:101350000F920FB60F9211240BB60F922F933F935B
:101360004F935F936F937F938F939F93AF93BF93AD
:10137000EF93FF9380916F0390917003A09171039D
:10138000B0917203892B8A2B8B2BE1F190915E0334
:10139000E0915F03F09160038081892780838091D1
:1013A0006F0390917003A0917103B09172031816AE
:1013B00019061A061B069CF480916F039091700326
:1013C000A0917103B09172030197A109B1098093B3
:1013D0006F0390937003A0937103B0937203FF9116
:1013E000EF91BF91AF919F918F917F916F915F919D
:1013F0004F913F912F910F900BBE0F900FBE0F900A
:101400001F90189580911C020E945603E8CF1F92EE
:101410000F920FB60F9211242F933F938F939F93A8
:10142000AF93BF938091E8029091E902A091EA0204
:10143000B091EB023091DF0223E0230F2D3758F5F6
:101440000196A11DB11D2093DF028093E8029093C5
:10145000E902A093EA02B093EB028091E00290913E
:10146000E102A091E202B091E3020196A11DB11D3B
:101470008093E0029093E102A093E202B093E30232
:10148000BF91AF919F918F913F912F910F900FBE80
:101490000F901F90189526E8230F0296A11DB11DED
:1014A000D2CF1F920F920FB60F9211240BB60F924C
:1014B0002F933F934F935F936F937F938F939F935C
:1014C000AF93BF93EF93FF9348E251E064E271E082
:1014D00090E080E00E946506FF91EF91BF91AF918F
:1014E0009F918F917F916F915F914F913F912F913C
:1014F0000F900BBE0F900FBE0F901F9018951F926C
:101500000F920FB60F9211240BB60F922F933F93A9
:101510004F935F936F937F938F939F93AF93BF93FB
:10152000EF93FF9348EA50E064EA70E083E090E0D4
:101530000E946506FF91EF91BF91AF919F918F91AE
:101540007F916F915F914F913F912F910F900BBEC3
:101550000F900FBE0F901F9018951F920F920FB60D
:101560000F9211240BB60F922F933F934F935F93DB
:101570006F937F938F939F93AF93BF93EF93FF935B
:1015800048E950E064E970E082E090E00E9465067E
:10159000FF91EF91BF91AF919F918F917F916F914B
:1015A0005F914F913F912F910F900BBE0F900FBE07
:1015B0000F901F9018951F920F920FB60F92112443
:1015C0000BB60F922F933F934F935F936F937F933D
:1015D0008F939F93AF93BF93EF93FF9348E850E0AF
:1015E00064E870E081E090E00E946506FF91EF9171
:1015F000BF91AF919F918F917F916F915F914F912B
:101600003F912F910F900BBE0F900FBE0F901F9028
:101610001895CF93DF931F921F92CDB7DEB77894C2
:1016200084B5826084BD84B5816084BD85B58260E7
:1016300085BD85B5816085BD80916E008160809398
:101640006E00109281008091810082608093810001
:101650008091810081608093810080918000816011
:10166000809380008091B10084608093B10080916C
:10167000B00081608093B00080919100826080937F
:101680009100809191008160809391008091900001
:101690008160809390008091A10082608093A1007E
:1016A0008091A10081608093A1008091A000816061
:1016B0008093A0008091210182608093210180911C
:1016C00021018160809321018091200181608093BC
:1016D000200180917A00846080937A0080917A0062
:1016E000826080937A0080917A00816080937A0092
:1016F00080917A00806880937A001092C10061E046
:101700008CE00E949B0361E08DE00E949B0382E0DD
:101710000E945C0886E592E00E949F0762E080E0FC
:101720000E94FD0887E692E00E949F0760ED77E047
:1017300080E090E00E9433060E94540882E792E025
:101740000E949F0762E080E00E94FD088AE792E025
:101750000E949F0760ED77E080E090E00E943306F2
:101760000E9454080E94D70390E080E00E940C0978
:101770001092E7021092E60268EE73E080E090E0DB
:101780000E94330661E088E10E949B03412C512CAA
:101790003201439440E0A42E40E0B42E8091E60252
:1017A0009091E7020197B9F5C12CD12C7601809177
:1017B0001A0290911B02C816D9061CF584E10E94FA
:1017C000F8028C01019709F070C00E94540868EE7D
:1017D00073E080E090E00E94330688E892E00E9487
:1017E0009F0790E080E00E940C091092E70210929F
:1017F000E60260E084E10E9424031093E502009376
:10180000E4028091E4029091E502892B21F490E0BA
:1018100080E00E940C098091E6029091E702892BFA
:1018200009F059C10E94540880E992E00E949F0784
:1018300064E670E080E090E00E94330681E08093EF
:1018400058038FB7F8944091E8025091E9026091F3
:10185000EA027091EB028FBF809148039091490397
:10186000A0914A03B0914B03481B590B6A0B7B0BA9
:101870008091540390915503B0E0A0E08417950740
:10188000A607B70708F02EC110E080915203181781
:10189000F8F4E0914E03F0914F03E10FF11D62E087
:1018A00080810E949B031F5FF0CF0E9454084AE092
:1018B000C701B6010E94510768EE73E080E090E036
:1018C0000E9433065FEFC51AD50AE50AF50A6FCF05
:1018D000312C80915303381608F061C0E32CF12CB1
:1018E000E0915003F0915103EE0DFF1D61E0808106
:1018F0000E949B03E0915003F0915103EE0DFF1DF8
:1019000060E080810E942403D301C201032C04C043
:10191000880F991FAA1FBB1F0A94D2F74C016C01B4
:10192000C094D094212C80915203281608F5022DE2
:1019300010E0E0914E03F0914F03E00FF11F808122
:101940000E94F8020C5F1F4F000F111FF801E451B5
:10195000FD4F892B41F480819181882999299183B8
:1019600080832394E0CF808191818C219D21F7CFCA
:10197000E0915003F0915103EE0DFF1D61E0808175
:101980000E9424038091500390915103E80EF91EA8
:1019900060E0F70180810E949B0333949ACF0CEEA4
:1019A00012E07801F701878D90A1892B31F4148E14
:1019B0008FEF9FEF968F858F11A296E0E90EF11CB5
:1019C000E8E2EE16E3E0FE0669F7912C80915203FF
:1019D000981608F053C0812CC92CD12CCC0CDD1CDE
:1019E000C6018C509D4F6C0120915303821608F064
:1019F00043C0F60160817181082C02C0769567951D
:101A00000A94E2F7929E90011124280D311DECEE0C
:101A1000F2E080E0458D568D2417350709F417C193
:101A20008F5F36968A30B1F760FF24C0ECEEF2E0AB
:101A300090E080E0448D411118C0E0914C03F0919A
:101A40004D03E20FF31F408156E0589FF001599F6C
:101A5000F00D1124E451FD4F448F368F258F10A2D5
:101A6000178E61E00E94F40105C0019636968A3017
:101A7000910501F78394B8CF9394A8CF80E0F80143
:101A800091A19111892F0A5F1F4FE016F106B9F756
:101A90009FB7F8944091E8025091E9026091EA0200
:101AA0007091EB029FBF40934803509349036093AA
:101AB0004A0370934B038823A9F080910D03882378
:101AC00089F080910B0390910C03019759F41091C8
:101AD000080311110AC0A114B10409F45FCE0E94D9
:101AE00000005CCE10925803F6CF1A3209F056C0AF
:101AF0000E94AC0770931902609318020E94540868
:101B000080EA92E00E949F0768EE73E080E090E038
:101B10000E9433060E94AC0770931902609318026A
:101B20000E94540880EA92E00E949F0768EE73E0EA
:101B300080E090E00E94330661E080E00E94FD08B2
:101B400041E0612F8EE094E00E94FB0768EE73E0B5
:101B500080E090E00E94330619831A8200912A04E3
:101B600010912B040F5F1F4FC8010E942307882389
:101B700009F4B1CF209126043091270480912A04E2
:101B800090912B04BE016F5F7F4F820F931F0E94C5
:101B9000B91110932B0400932A049DCF143459F4E7
:101BA0000E94AC0770931B0260931A020E945408B3
:101BB0008DEA92E0B9CF133209F0BECF0E94AC0794
:101BC00020911802309119028901330F220B330B37
:101BD0006017710782079307A9F00E94540887EBEA
:101BE00092E00E949F0762E085E00E94FD088DEB75
:101BF00092E00E949F0760ED77E080E090E00E9415
:101C0000330669CF0E9454088DEB92E00E949F0733
:101C100062E086E00E94FD0886EC92E00E949F0749
:101C200060ED77E080E090E00E9433060E94540867
:101C30008FEC92E00E949F0760ED77E080E090E0FB
:101C40000E94330681E090E00E940C0944CF61704D
:101C500009CFCF93109211041092100481E392E007
:101C600090930F0480930E048EE080931204CFEFC4
:101C7000C09313048FE08093140480E180931504D3
:101C800081E18093160482E18093170483E18093BD
:101C900018041092190410921A0410921B04109246
:101CA0001C0410921D0481E00E945C088091DA02FD
:101CB000803308F086C091E0980F9093DA02809309
:101CC0000B0490E0FC01EE0FFF1FE80FF91FE55831
:101CD000FC4F88EB9BE09283818310922704109243
:101CE0002604109229041092280410922B041092BA
:101CF0002A0490E080E00E9423072091260430917E
:101D00002704811161C02115310519F0C9010E9414
:101D10004610109227041092260410922B04109261
:101D20002A0410922904109228041092EE021092B4
:101D3000F2021092F1021092F30287E292E0909385
:101D4000ED028093EC02E8E0F3E01082148213824B
:101D50001582369683E0E434F807B9F784E092E020
:101D600090934F0380934E0380E092E09093510351
:101D70008093500384E0809352038093530388E060
:101D800092E090934D0380934C038AE090E090930F
:101D900055038093540384EF91E09093570380930D
:101DA000560310925A03109259031092480310924E
:101DB000490310924A0310924B0310925803CF919B
:101DC0000895C0930B0489CF10922B0410922A041B
:101DD00065E572E0C9010E94B911A7CF8091260480
:101DE00090912704009711F00C94461008951F93CA
:101DF000FC0199278827BC01E89411911032E9F37E
:101E0000193010F01E30C8F31B3251F01D3249F466
:101E1000689406C00E941E0F610F711D811D911DE7
:101E2000119110531A30B0F33EF49095809570954F
:101E300061957F4F8F4F9F4F1F910895592F482FC6
:101E4000372F262F660F771F881F991F660F771F62
:101E5000881F991F620F731F841F951F660F771FBE
:101E6000881F991F0895052E97FB1EF400940E9469
:101E70004A0F57FD07D00E94650F07FC03D04EF4B0
:101E80000C944A0F50954095309521953F4F4F4FF8
:101E90005F4F089590958095709561957F4F8F4F16
:101EA0009F4F08950E94870FA59F900DB49F900D9E
:101EB000A49F800D911D11240895B7FF0C94520F1B
:101EC0000E94520F821B930B0895A1E21A2EAA1BA7
:101ED000BB1BFD010DC0AA1FBB1FEE1FFF1FA217DA
:101EE000B307E407F50720F0A21BB30BE40BF50BD7
:101EF000661F771F881F991F1A9469F76095709560
:101F0000809590959B01AC01BD01CF010895A29FE2
:101F1000B001B39FC001A39F700D811D1124911DBD
:101F2000B29F700D811D1124911D0895991B79E0B8
:101F300004C0991F961708F0961B881F7A95C9F759
:101F400080950895EE0FFF1F881F8BBF0790F691B5
:101F5000E02D19940F931F93CF93DF938230910557
:101F600010F482E090E0E0912E04F0912F0430E034
:101F700020E0B0E0A0E0309799F42115310509F494
:101F80004AC0281B390B24303105D8F58A819B8142
:101F90006115710589F1FB0193838283FE0111C0F4
:101FA000408151810281138148175907E0F0481799
:101FB000590799F4109761F012960C9312971396A3
:101FC0001C933296CF01DF91CF911F910F9108950D
:101FD00000932E0410932F04F4CF2115310551F0F6
:101FE0004217530738F0A901DB019A01BD01DF0157
:101FF000F801C1CFEF01F9CF90932F0480932E0405
:10200000CDCFFE01E20FF31F81939193225031094E
:1020100039832883D7CF20912C0430912D04232B92
:1020200041F420911F023091200230932D0420931F
:102030002C0420911D0230911E022115310541F41E
:102040002DB73EB74091210250912202241B350B3F
:10205000E0912C04F0912D04E217F307A0F42E1B5D
:102060003F0B2817390778F0AC014E5F5F4F2417FC
:10207000350748F04E0F5F1F50932D0440932C04FA
:10208000819391939FCFF0E0E0E09CCFCF93DF93DB
:102090000097E9F0FC01329713821282A0912E047E
:1020A000B0912F04ED0130E020E01097A1F42081E1
:1020B0003181820F931F20912C0430912D04281719
:1020C000390709F061C0F0932D04E0932C04DF91EF
:1020D000CF910895EA01CE17DF07E8F54A815B81C9
:1020E0009E0141155105B1F7E901FB83EA8349914E
:1020F0005991C40FD51FEC17FD0761F480819181C0
:102100000296840F951FE9019983888382819381C8
:102110009B838A83F0E0E0E012968D919C91139767
:102120000097B9F52D913C911197CD010296820F40
:10213000931F20912C0430912D042817390739F66C
:10214000309751F510922F0410922E04B0932D0465
:10215000A0932C04BCCFD383C28340815181840FD0
:10216000951FC817D90761F44E5F5F4F8881998129
:10217000480F591F518340838A819B8193838283B7
:102180002115310509F0B0CFF0932F04E0932E0410
:102190009ECFFD01DC01C0CF13821282D7CF4F92B8
:1021A0005F926F927F928F929F92AF92BF92CF92E7
:1021B000DF92EF92FF920F931F93CF93DF938C01E7
:1021C000009799F4CB01DF91CF911F910F91FF9070
:1021D000EF90DF90CF90BF90AF909F908F907F90C7
:1021E0006F905F904F900C94AA0FFC01E60FF71FC1
:1021F0009C0122503109E217F30708F4AEC0D9015F
:10220000CD91DC911197C617D70720F1C530D105C4
:1022100078F0CE0104978617970750F0C61BD70BAE
:102220002297C193D1936D937C93CF010E94461066
:10223000C801DF91CF911F910F91FF90EF90DF9038
:10224000CF90BF90AF909F908F907F906F905F9056
:102250004F9008955B01AC1ABD0A4C018C0E9D1E77
:10226000A0912E04B0912F04512C412CF12CE12C83
:10227000109731F580912C0490912D0488159905C3
:1022800009F05CC04616570608F058C080911D0240
:1022900090911E02009741F48DB79EB740912102A4
:1022A00050912202841B950BE817F90708F055C0DE
:1022B000F0932D04E0932C04F90171836083B8CF6F
:1022C0008D919C91119712966C90129713967C9019
:1022D0001397A815B90559F56C0142E0C40ED11C3D
:1022E000CA14DB0420F1AC014A195B09DA01129629
:1022F000159780F06282738251834083D9016D9378
:102300007C93E114F10471F0D7011396FC93EE93E2
:1023100012978ECF22968C0F9D1FF9019183808397
:10232000F301EFCFF0932F04E0932E0481CF4816F2
:10233000590608F42C017D01D3019ACFCB010E94EC
:10234000AA0F7C01009749F0AE01B8010E94B011BC
:10235000C8010E94461087016BCF10E000E068CFF3
:10236000FB01DC0102C001900D9241505040D8F7B2
:102370000895FB01DC0101900D920020E1F7089522
:1023800011E0C8E3D1E000E006C0802FFE010E940A
:10239000A20F2196011DC933D10780E00807A9F7D4
:0423A000F894FFCFDF
:1023A40008020A0B04050607373839433435364228
:1023B400313233412A3023449F000A00FF000030A9
:1023C400048000000000000A0652032103000000FC
:1023D40000A109640220071F07646F6F72206973EC
:1023E400206F70656E00646F6F7220697320636C78
:1023F4006F7365202000444F4F52204C4F434B20B5
:1024040053595354454D0020202020202020425968
:102414003A007368616B6962610020202020616D5D
:102424006972736861686900636C6F73696E6700D1
:10243400456E7465722050617373776F72643A00ED
:102444006E65772070617373776F7264006E657761
:102454002074696D65720057524F4E4700504153C6
:1024640053574F524400414343455054454400445C
:0A2474006F6F72204F70656E00005C
:00000001FF
